:0300000002016892
:0C016800787FE4F6D8FD75814702000E98
:10014800D2AFD2A9438902E4F58AF58CD28CD2A821
:10015800D288438920758DFD758BFDD28ED29E2263
:03000B00020006EA
:030006000522329E
:030003000200D028
:0D00D000C0E0C0D075D000C000C006C00761
:1000DD00300032AF22C3EF942074809480400CEF37
:1000ED00943574809480500375210074272521F870
:1000FD00A6227522000521E5216421700DF521D27E
:0A010D0001C2008005D20075220037
:0B011700D007D006D000D0D0D0E032DE
:10007300750901E4FFEFC39404748094805045E450
:10008300FEEEFD7C00C39408748094805033742783
:100093002509F8E6D3940574809480400874232FCF
:1000A300F8E64480F6C3ED9407EC64809480500C2A
:1000B30074232FF8C000E6C313D000F605090E80A1
:0C00C300C00F80B1E50964217002D20278
:0100CF00220E
:10000E001201483001FDC2011200733002F5C20226
:10001E00E525120122005A07006209005E15005202
:10002E0040005643004E44004245004646004A47B3
:10003E0000000066B2808023B281801FB282801BD6
:10004E00B2838017B2848013B285800FB286800B84
:10005E00B2878007B28780037580FF852599309916
:05006E00FDC299809E17
:10012200D083D082F8E4937012740193700DA3A36C
:1001320093F8740193F5828883E473740293686080
:06014200EFA3A3A380DF80
:00000001FF
